:100000000C942A000C949E0A0C94D10A0C94040BB4
:100010000C9447000C9447000C94AE080C943922C1
:100020000C9447000C9447000C94FC090C94640950
:100030000C9447000C9447000C9447000C94470024
:100040000C9447000C9447000C9447000C94470014
:100050000C94470011241FBECFE5D8E0DEBFCDBF12
:1000600012E0A0E6B0E0EAECF6E602C005900D92E0
:10007000A030B107D9F715E0A0E0B2E001C01D92B1
:10008000AC31B107E1F70E94A82D0C9463330C94B6
:100090000000EF92FF920F931F937B018C0120E0F1
:1000A00030E040E05FE40E94F50388238CF0C80153
:1000B000B70120E030E040E05FE40E94C1010E940F
:1000C00055049B01AC01205030404040504806C0D0
:1000D000C801B7010E9455049B01AC01B901CA01D6
:1000E0001F910F91FF90EF900895A0E0B0E0EBE733
:1000F000F0E00C946C30DC012B01FA019C91923001
:1001000008F439C1EB018881823008F433C194309E
:1001100069F4843009F02FC111969C91119789815F
:10012000981709F428C1A4EDB0E025C1843009F482
:1001300021C18230A9F4923009F01DC19A01AD01AC
:1001400088E0EA010990AE01E90109929E0181501F
:10015000C1F7E201898111969C918923818308C1AD
:10016000923009F407C112962D903C901397EB0141
:100170008A819B811496AD90BD90CD90DC901797AD
:10018000EC80FD800E811F819101281B390BB90184
:1001900037FF04C066277727621B730B6032710537
:1001A0000CF061C0121613066CF537014801062EDB
:1001B00004C096948794779467940A94D2F721E0C8
:1001C00030E040E050E004C0220F331F441F551FB1
:1001D0006A95D2F721503040404050402E213F21B7
:1001E00040235123211531054105510521F021E01E
:1001F00030E040E050E079018A01E628F72808293C
:1002000019293CC0232BD1F1260E371E350146019A
:10021000062E04C096948794779467940A94D2F734
:1002200021E030E040E050E004C0220F331F441FC3
:10023000551F6A95D2F721503040404050402A2146
:100240003B214C215D21211531054105510521F04E
:1002500021E030E040E050E059016A01A628B728CB
:10026000C828D9280BC0821593052CF01C01AA249C
:10027000BB24650103C0EE24FF24870111969C91E5
:10028000D20111968C91981709F445C0992339F041
:10029000A80197012A193B094C095D0906C0A6016E
:1002A00095012E193F09400B510B57FD08C01182D3
:1002B0003382228224833583468357831DC081E0A5
:1002C00081833382228288279927DC01821B930B4A
:1002D000A40BB50B84839583A683B7830DC0220F2F
:1002E000331F441F551F24833583468357838281E0
:1002F000938101979383828324813581468157813D
:10030000DA01C9010197A109B1098F5F9F4FAF4F72
:10031000BF4328F30BC0918333822282EA0CFB1C7B
:100320000C1D1D1DE482F5820683178383E0808304
:10033000248135814681578157FF1AC0C901AA27F8
:1003400097FDA095BA2F81709070A070B0705695EF
:10035000479537952795822B932BA42BB52B848318
:100360009583A683B7838281938101969383828349
:10037000DF0101C0D201CD01CDB7DEB7E2E10C94BF
:100380008830A0E2B0E0E7ECF1E00C9478306983CB
:100390007A838B839C832D833E834F835887E9E048
:1003A000EE2EF12CEC0EFD1ECE010196B7010E943F
:1003B00046068E010F5E1F4FCE010596B8010E94C2
:1003C00046068A8991E089278A8BC701B801AE0168
:1003D000475E5F4F0E9475000E947105A096E6E09F
:1003E0000C949430A0E2B0E0E8EFF1E00C947830A7
:1003F00069837A838B839C832D833E834F835887C5
:10040000F9E0EF2EF12CEC0EFD1ECE010196B701A6
:100410000E9446068E010F5E1F4FCE010596B80161
:100420000E944606C701B801AE01475E5F4F0E94B9
:1004300075000E947105A096E6E00C949430A0E24D
:10044000B0E0E5E2F2E00C946C3069837A838B8350
:100450009C832D833E834F835887CE010196BE0136
:10046000675F7F4F0E944606CE010596BE016F5E14
:100470007F4F0E9446069985923088F089898230A4
:10048000C8F0943019F4823051F404C0843029F457
:10049000923081F484ED90E0C6C0923049F420E0BF
:1004A0009A858A89981321E02A87CE010996BBC0D4
:1004B000823049F420E09A858A89981321E02A8BBA
:1004C000CE014196B0C02D843E844F8458886D88FB
:1004D0007E888F88988CEE24FF248701AA24BB2471
:1004E000650140E050E060E070E0E0E0F0E0C10174
:1004F00081709070892BE9F0E60CF71C081D191D1E
:100500009A01AB012A0D3B1D4C1D5D1D80E090E062
:10051000A0E0B0E0E614F7040805190520F481E036
:1005200090E0A0E0B0E0BA01A901480F591F6A1F8E
:100530007B1FAA0CBB1CCC1CDD1C97FE08C081E0F5
:1005400090E0A0E0B0E0A82AB92ACA2ADB2A3196B6
:10055000E032F10549F0660C771C881C991C569412
:10056000479437942794C3CFFA85EA892B893C892D
:100570008B859C85280F391F2E5F3F4F17C0CA01FE
:1005800081709070892B61F016950795F794E79428
:1005900080E090E0A0E0B0E8E82AF92A0A2B1B2BC3
:1005A00076956795579547952F5F3F4F77FDE7CF36
:1005B0000CC0440F551F661F771F17FD4160EE0CDE
:1005C000FF1C001F111F21503040403090E05907A0
:1005D00090E0690790E4790760F32B8F3C8FDB0193
:1005E000CA018F779070A070B07080349105A1051A
:1005F000B10561F447FD0AC0E114F10401051105DC
:1006000029F0405C5F4F6F4F7F4F40781A8EFE1786
:1006100011F081E08A8F4D8F5E8F6F8F78A383E01A
:10062000898FCE0149960E947105A096E2E10C9453
:100630008830A8E1B0E0EFE1F3E00C947430698316
:100640007A838B839C832D833E834F835887B9E0C5
:10065000EB2EF12CEC0EFD1ECE010196B7010E948F
:1006600046068E010F5E1F4FCE010596B8010E940F
:1006700046062985223008F47EC03989323010F4CC
:10068000B8017CC08A859A8989278A87243011F02D
:10069000223031F4231709F06EC064ED70E06EC0B3
:1006A000343039F41D861E861F86188A1C861B86E8
:1006B00004C0323021F484E08987B7015FC02B8504
:1006C0003C858B899C89281B390B3C872B87ED84C3
:1006D000FE840F851889AD88BE88CF88D88CEA142F
:1006E000FB040C051D0540F4EE0CFF1C001F111F40
:1006F000215030403C872B8720E030E040E050E044
:1007000080E090E0A0E0B0E460E070E0EA14FB0478
:100710000C051D0540F0282B392B4A2B5B2BEA18C2
:10072000FB080C091D09B695A79597958795EE0CC2
:10073000FF1C001F111F6F5F7F4F6F31710531F775
:10074000DA01C9018F779070A070B0708034910584
:10075000A105B10561F427FD0AC0E114F10401050A
:10076000110529F0205C3F4F4F4F5F4F20782D87B8
:100770003E874F87588BBE01675F7F4FCB010E943A
:1007800071056896EAE00C949030A8E1B0E0EBECDB
:10079000F3E00C94783069837A838B839C832D8378
:1007A0003E834F83588789E0E82EF12CEC0EFD1E26
:1007B000CE010196B7010E9446068E010F5E1F4FC3
:1007C000CE010596B8010E9446068985823040F028
:1007D0008989823028F0C701B8010E94BE0601C095
:1007E0008FEF6896E6E00C949430A8E1B0E0EBEF70
:1007F000F3E00C94783069837A838B839C832D8318
:100800003E834F83588789E0E82EF12CEC0EFD1EC5
:10081000CE010196B7010E9446068E010F5E1F4F62
:10082000CE010596B8010E9446068985823040F0C7
:100830008989823028F0C701B8010E94BE0601C034
:100840008FEF6896E6E00C949430A8E1B0E0EBE21C
:10085000F4E00C94783069837A838B839C832D83B6
:100860003E834F83588789E0E82EF12CEC0EFD1E65
:10087000CE010196B7010E9446068E010F5E1F4F02
:10088000CE010596B8010E9446068985823040F067
:100890008989823028F0C701B8010E94BE0601C0D4
:1008A00081E06896E6E00C949430ACE0B0E0EBE5D3
:1008B000F4E00C947C3069837A838B839C83CE0133
:1008C0000196BE016B5F7F4F0E9446068D8182308C
:1008D00061F1823050F1843021F48E81882351F10E
:1008E0002EC02F81388537FD20C06E812F31310514
:1008F0001CF06623F9F023C08EE190E0821B930B7D
:1009000029853A854B855C8504C056954795379572
:1009100027958A95D2F76623B1F05095409530958A
:1009200021953F4F4F4F5F4F0EC020E030E040E039
:1009300050E009C02FEF3FEF4FEF5FE704C020E02A
:1009400030E040E050E8B901CA012C96E2E00C9496
:100950009830A8E0B0E0EFEAF4E00C9474307B014A
:100960008C01611571058105910519F482E0898377
:1009700060C083E089838EE1C82ED12CDC82CB82DB
:10098000ED82FE820F831887C801B7010E942205FD
:10099000FC013197F7FF3BC0222733272E1B3F0B6B
:1009A00057016801022E04C0D694C794B794A79447
:1009B0000A94D2F740E050E060E070E081E090E01F
:1009C000A0E0B0E004C0880F991FAA1FBB1F2A95A2
:1009D000D2F70197A109B1098E219F21A023B1234C
:1009E0000097A105B10521F041E050E060E070E022
:1009F0004A295B296C297D294D835E836F83788723
:100A00008EE190E08E1B9F0B9C838B8312C03097EE
:100A100081F00E2E04C0EE0CFF1C001F111F0A9463
:100A2000D2F7ED82FE820F831887CE1ADF0ADC82AE
:100A3000CB821A82CE0101960E9471052896EAE0C7
:100A40000C949030EF92FF920F931F937B018C01D7
:100A500080E0E81680E0F80681E0080780E01807EB
:100A600088F48FEFE816F1040105110531F028F044
:100A700088E090E0A0E0B0E017C080E090E0A0E067
:100A8000B0E012C080E0E81680E0F80680E00807D9
:100A900081E0180728F088E190E0A0E0B0E004C011
:100AA00080E190E0A0E0B0E020E230E040E050E003
:100AB000281B390B4A0B5B0B04C016950795F7945E
:100AC000E7948A95D2F7F701E452FF4F8081281B03
:100AD000310941095109C9011F910F91FF90EF9010
:100AE0000895DF92EF92FF920F931F93FC01E48031
:100AF000F58006811781D1808081823048F480E0C2
:100B000090E0A0E1B0E0E82AF92A0A2B1B2BA5C04F
:100B1000843009F49FC0823021F4EE24FF24870141
:100B200005C0E114F1040105110519F4E0E0F0E05D
:100B300096C0628173819FEF623879070CF05BC0C9
:100B400022E83FEF261B370B2A3131052CF020E03D
:100B500030E040E050E02AC0B801A701022E04C0F6
:100B600076956795579547950A94D2F781E090E07E
:100B7000A0E0B0E004C0880F991FAA1FBB1F2A95F0
:100B8000D2F70197A109B1098E219F21A023B1239A
:100B90000097A105B10521F081E090E0A0E0B0E070
:100BA0009A01AB01282B392B4A2B5B2BDA01C901A7
:100BB0008F779070A070B07080349105A105B10559
:100BC00039F427FF09C0205C3F4F4F4F5F4F04C0EF
:100BD000215C3F4F4F4F5F4FE0E0F0E02030A0E05E
:100BE0003A07A0E04A07A0E45A0710F0E1E0F0E07D
:100BF00079018A0127C06038710564F5FB01E1586D
:100C0000FF4FD801C7018F779070A070B07080340B
:100C10009105A105B10539F4E7FE0DC080E490E02F
:100C2000A0E0B0E004C08FE390E0A0E0B0E0E80E08
:100C3000F91E0A1F1B1F17FF05C016950795F7948D
:100C4000E794319687E016950795F794E7948A958F
:100C5000D1F705C0EE24FF248701EFEFF0E06E2FFF
:100C6000679566276795902F9F77D794DD24D79453
:100C70008E2F8695492F462B582F5D29B701CA0123
:100C80001F910F91FF90EF90DF900895FC01DB0121
:100C9000408151812281622F6F7770E0221F2227CD
:100CA000221F9381892F880F822B282F30E0991FD4
:100CB0009927991F11969C93119721153105A9F534
:100CC000411551056105710511F482E037C082E8D4
:100CD0009FEF13969C938E9312979A01AB0167E056
:100CE000220F331F441F551F6A95D1F783E08C9361
:100CF0000DC0220F331F441F551F12968D919C91DA
:100D00001397019713969C938E931297203080E04F
:100D1000380780E0480780E4580758F314962D936D
:100D20003D934D935C93179708952F3F310579F4C8
:100D3000411551056105710519F484E08C930895FE
:100D400064FF03C081E08C9312C01C9210C02F5727
:100D5000304013963C932E93129783E08C9387E058
:100D6000440F551F661F771F8A95D1F7706414963C
:100D70004D935D936D937C93179708951F93DC01BA
:100D8000FB019C91923008F447C08081823008F4C6
:100D900043C0943051F411961C91843099F58181AF
:100DA000682F70E0611B71093FC0843021F09230E0
:100DB00031F48230B9F18181882389F12DC01196F7
:100DC0001C9111978230F1F081811817D9F4129695
:100DD0002D913C911397828193818217930794F010
:100DE00028173907BCF014968D919D910D90BC91F8
:100DF000A02D2481358146815781281739074A075C
:100E00005B0718F4112341F00AC082179307A40767
:100E1000B50740F4112319F061E070E005C06FEFF1
:100E20007FEF02C060E070E0CB011F910895DF9377
:100E3000CF9300D00F92CDB7DEB783E390E09B83D2
:100E40008A8380E88983E9E2F0E08A818083E0E4B4
:100E5000F0E08A819B81892F99278083ABE2B0E003
:100E6000EBE2F0E080818D7F8C93ABE2B0E0EBE2CF
:100E7000F0E080818E7F8C93AAE2B0E0EAE2F0E0BD
:100E8000808180618C93AAE2B0E0EAE2F0E08081A8
:100E900088608C9389818460898389818260898359
:100EA000AAE2B0E0EAE2F0E080818B7F8C93898156
:100EB0008F7B898389818F7E898389818F7D8983D7
:100EC000898188608983E0E4F0E0898180830F90E4
:100ED0000F900F90CF91DF910895DF93CF930F92F2
:100EE000CDB7DEB78983EBE2F0E08081829586950D
:100EF0008770882F90E0817090700097A1F3ECE2EA
:100F0000F0E0898180830F90CF91DF910895DF9386
:100F1000CF93CDB7DEB7EBE2F0E080818823DCF73A
:100F2000ECE2F0E08081CF91DF910895DF93CF93E1
:100F300000D0CDB7DEB79A838983EBE2F0E0808101
:100F4000829586958770882F90E0817090700097C9
:100F5000A1F30BC0E981FA81208189819A810196F0
:100F60009A838983822F0E946D07E981FA818081AB
:100F7000882381F70F900F90CF91DF910895DF9331
:100F8000CF93CDB7DEB7AFE4B0E0EFE4F0E080811F
:100F90008E7F8C93AFE4B0E0EFE4F0E080818D7F52
:100FA0008C93AEE4B0E0EEE4F0E08081877F8C9338
:100FB000AEE4B0E0EEE4F0E080818F7E8C93AEE4AE
:100FC000B0E0EEE4F0E080818E7F8C93AEE4B0E0A0
:100FD000EEE4F0E0808182608C93AEE4B0E0EEE479
:100FE000F0E080818B7F8C93CF91DF910895DF9328
:100FF000CF93CDB7DEB7AFE4B0E0EFE4F0E08081AF
:101000008E7F8C93AFE4B0E0EFE4F0E0808182600B
:101010008C93AEE4B0E0EEE4F0E0808188608C93E5
:10102000AEE4B0E0EEE4F0E0808180618C93AFE468
:10103000B0E0EFE4F0E080818F7B8C93AFE4B0E030
:10104000EFE4F0E0808180688C93E6E4F0E08FE1EB
:101050009EE491838083AEE4B0E0EEE4F0E0808132
:101060008E7F8C93AEE4B0E0EEE4F0E080818260AD
:101070008C93AEE4B0E0EEE4F0E080818B7F8C9363
:10108000CF91DF910895DF93CF93CDB7DEB7AEE474
:10109000B0E0EEE4F0E0808180648C93A9E5B0E0FC
:1010A000E9E5F0E0808180628C93CF91DF91089533
:1010B000DF93CF9300D00F92CDB7DEB789838981BC
:1010C000282F30E03B832A838A819B81009731F06F
:1010D0002A813B812130310549F00FC0AEE4B0E0F8
:1010E000EEE4F0E080818F7B8C9307C0AEE4B0E04B
:1010F000EEE4F0E0808180648C930F900F900F906D
:10110000CF91DF910895DF93CF93CDB7DEB7E6E4BB
:10111000F0E080819181CF91DF910895DF93CF93AB
:10112000CDB7DEB7A9E5B0E0E9E5F0E080818F7DDD
:101130008C93CF91DF910895DF93CF9300D0CDB7FB
:10114000DEB79A83898389819A8190930102809383
:1011500000020F900F90CF91DF9108951F920F9290
:101160000FB60F9211242F933F934F935F936F937A
:101170007F938F939F93AF93BF93EF93FF93DF93EF
:10118000CF93CDB7DEB78091000290910102009716
:1011900029F0E0910002F09101020995CF91DF91D1
:1011A000FF91EF91BF91AF919F918F917F916F913F
:1011B0005F914F913F912F910F900FBE0F901F9015
:1011C0001895DF93CF93CDB7DEB7A3E5B0E0E3E5A5
:1011D000F0E080818F7B8C93A3E5B0E0E3E5F0E065
:1011E0008081877F8C93A9E5B0E0E9E5F0E080811C
:1011F00081608C93E2E5F0E080EC8083A3E5B0E0D1
:10120000E3E5F0E080818E7F8C93A3E5B0E0E3E539
:10121000F0E0808182608C93A3E5B0E0E3E5F0E04C
:1012200080818B7F8C93CF91DF910895DF93CF9353
:10123000CDB7DEB7A3E5B0E0E3E5F0E08081806400
:101240008C93A3E5B0E0E3E5F0E0808188608C93C7
:10125000A3E5B0E0E3E5F0E080818F7E8C93A3E529
:10126000B0E0E3E5F0E0808180628C93ECE5F0E0B3
:1012700083E68083A3E5B0E0E3E5F0E080818E7F44
:101280008C93A3E5B0E0E3E5F0E0808182608C938D
:10129000A3E5B0E0E3E5F0E080818B7F8C93CF9114
:1012A000DF910895DF93CF9300D0CDB7DEB79A8357
:1012B000898389819A8190930902809308020F9013
:1012C0000F90CF91DF9108951F920F920FB60F925A
:1012D00011242F933F934F935F936F937F938F933B
:1012E0009F93AF93BF93EF93FF93DF93CF93CDB7CC
:1012F000DEB7809104029091050201969093050259
:101300008093040280910402909105022FE08334BF
:10131000920769F4E0910802F09109020995109290
:10132000050210920402E2E5F0E080EC8083CF91A8
:10133000DF91FF91EF91BF91AF919F918F917F913D
:101340006F915F914F913F912F910F900FBE0F9032
:101350001F901895DF93CF9300D0CDB7DEB79A8357
:10136000898389819A819093030280930202A3E585
:10137000B0E0E3E5F0E080818F7B8C93A3E5B0E003
:10138000E3E5F0E0808188608C93A9E5B0E0E9E5D1
:10139000F0E0808182608C93ECE5F0E087EC808364
:1013A000A3E5B0E0E3E5F0E080818E7F8C93A3E5D8
:1013B000B0E0E3E5F0E0808182608C93A3E5B0E0EB
:1013C000E3E5F0E080818B7F8C930F900F90CF91BD
:1013D000DF910895DF93CF9300D0CDB7DEB79A8326
:1013E000898389819A8190930B0280930A020F90DE
:1013F0000F90CF91DF9108951F920F920FB60F9229
:1014000011242F933F934F935F936F937F938F9309
:101410009F93AF93BF93EF93FF93DF93CF93CDB79A
:10142000DEB7809106029091070201969093070221
:101430008093060280910602909107028530910503
:1014400049F4E0910A02F0910B020995109207020B
:1014500010920602CF91DF91FF91EF91BF91AF9172
:101460009F918F917F916F915F914F913F912F91BC
:101470000F900FBE0F901F901895DF93CF93CDB7AD
:10148000DEB7AFE5B0E0EFE5F0E0808180688C93F7
:10149000CF91DF910895DF93CF93CDB7DEB7AFE55E
:1014A000B0E0EFE5F0E080818F778C93CF91DF9112
:1014B0000895DF93CF93CDB7DEB7A5E5B0E0E5E5BE
:1014C000F0E0808181608C93A5E5B0E0E5E5F0E097
:1014D000808182608C93ABE5B0E0EBE5F0E0808149
:1014E00080648C93CF91DF910895DF93CF93CDB734
:1014F000DEB7AFE5B0E0EFE5F0E0808180688C9387
:10150000CF91DF910895DF93CF9300D00F92CDB7A5
:10151000DEB789837B836A838981882F90E0880F77
:10152000991FFC01E45FFD4F8A819B819183808339
:101530000F900F900F90CF91DF9108951F920F920F
:101540000FB60F9211242F933F934F935F936F9396
:101550007F938F939F93AF93BF93EF93FF93DF930B
:10156000CF93CDB7DEB780910C0290910D0200971A
:1015700029F0E0910C02F0910D020995CF91DF91D5
:10158000FF91EF91BF91AF919F918F917F916F915B
:101590005F914F913F912F910F900FBE0F901F9031
:1015A00018951F920F920FB60F9211242F933F930D
:1015B0004F935F936F937F938F939F93AF93BF935B
:1015C000EF93FF93DF93CF93CDB7DEB780910E02F9
:1015D00090910F02009729F0E0910E02F0910F0216
:1015E0000995CF91DF91FF91EF91BF91AF919F91BD
:1015F0008F917F916F915F914F913F912F910F90BC
:101600000FBE0F901F9018951F920F920FB60F925A
:1016100011242F933F934F935F936F937F938F93F7
:101620009F93AF93BF93EF93FF93DF93CF93CDB788
:10163000DEB78091100290911102009729F0E0919D
:101640001002F09111020995CF91DF91FF91EF9176
:10165000BF91AF919F918F917F916F915F914F91CA
:101660003F912F910F900FBE0F901F901895DF9311
:10167000CF93CDB7DEB727970FB6F894DEBF0FBE76
:10168000CDBF89836A834B838B81813009F06FC022
:101690008981282F30E03F832E838E819F81813086
:1016A000910549F12E813F81223031052CF48E8144
:1016B0009F81009761F0D2C02E813F812230310599
:1016C00071F18E819F8183309105E9F1C7C0AAE352
:1016D000B0E0EAE3F0E08081482F8A81282F30E0F3
:1016E00081E090E0022E02C0880F991F0A94E2F771
:1016F000842B8C93B3C0A7E3B0E0E7E3F0E08081F4
:10170000482F8A81282F30E081E090E0022E02C02D
:10171000880F991F0A94E2F7842B8C939FC0A4E34F
:10172000B0E0E4E3F0E08081482F8A81282F30E0A8
:1017300081E090E0022E02C0880F991F0A94E2F720
:10174000842B8C938BC0A1E3B0E0E1E3F0E08081D7
:10175000482F8A81282F30E081E090E0022E02C0DD
:10176000880F991F0A94E2F7842B8C9377C08B81A2
:10177000882309F073C08981282F30E03D832C83B2
:101780008C819D818130910559F12C813D812230E0
:1017900031052CF48C819D81009769F05FC02C810C
:1017A0003D812230310589F18C819D818330910505
:1017B00009F440C053C0AAE3B0E0EAE3F0E080815E
:1017C000482F8A81282F30E081E090E0022E02C06D
:1017D000880F991F0A94E2F7809584238C933EC06A
:1017E000A7E3B0E0E7E3F0E08081482F8A81282F6B
:1017F00030E081E090E0022E02C0880F991F0A9429
:10180000E2F7809584238C9329C0A4E3B0E0E4E35D
:10181000F0E08081482F8A81282F30E081E090E03D
:10182000022E02C0880F991F0A94E2F78095842344
:101830008C9314C0A1E3B0E0E1E3F0E08081482F95
:101840008A81282F30E081E090E0022E02C0880FCC
:10185000991F0A94E2F7809584238C9327960FB6FC
:10186000F894DEBF0FBECDBFCF91DF910895DF9317
:10187000CF93CDB7DEB727970FB6F894DEBF0FBE74
:10188000CDBF89836A834B838B81813009F06FC020
:101890008981282F30E03F832E838E819F81813084
:1018A000910549F12E813F81223031052CF48E8142
:1018B0009F81009761F0D2C02E813F812230310597
:1018C00071F18E819F8183309105E9F1C7C0ABE34F
:1018D000B0E0EBE3F0E08081482F8A81282F30E0F0
:1018E00081E090E0022E02C0880F991F0A94E2F76F
:1018F000842B8C93B3C0A8E3B0E0E8E3F0E08081F0
:10190000482F8A81282F30E081E090E0022E02C02B
:10191000880F991F0A94E2F7842B8C939FC0A5E34C
:10192000B0E0E5E3F0E08081482F8A81282F30E0A5
:1019300081E090E0022E02C0880F991F0A94E2F71E
:10194000842B8C938BC0A2E3B0E0E2E3F0E08081D3
:10195000482F8A81282F30E081E090E0022E02C0DB
:10196000880F991F0A94E2F7842B8C9377C08B81A0
:10197000882309F073C08981282F30E03D832C83B0
:101980008C819D818130910559F12C813D812230DE
:1019900031052CF48C819D81009769F05FC02C810A
:1019A0003D812230310589F18C819D818330910503
:1019B00009F440C053C0ABE3B0E0EBE3F0E080815A
:1019C000482F8A81282F30E081E090E0022E02C06B
:1019D000880F991F0A94E2F7809584238C933EC068
:1019E000A8E3B0E0E8E3F0E08081482F8A81282F67
:1019F00030E081E090E0022E02C0880F991F0A9427
:101A0000E2F7809584238C9329C0A5E3B0E0E5E359
:101A1000F0E08081482F8A81282F30E081E090E03B
:101A2000022E02C0880F991F0A94E2F78095842342
:101A30008C9314C0A2E3B0E0E2E3F0E08081482F91
:101A40008A81282F30E081E090E0022E02C0880FCA
:101A5000991F0A94E2F7809584238C9327960FB6FA
:101A6000F894DEBF0FBECDBFCF91DF910895DF9315
:101A7000CF9300D000D0CDB7DEB789836A83898148
:101A8000282F30E03C832B838B819C818130910512
:101A9000D1F02B813C81223031052CF48B819C814B
:101AA000009761F01EC02B813C812230310581F00E
:101AB0008B819C818330910581F013C0EAE3F0E0D3
:101AC0008A8180830EC0E7E3F0E08A81808309C0C9
:101AD000E4E3F0E08A81808304C0E1E3F0E08A81FE
:101AE00080830F900F900F900F90CF91DF9108950A
:101AF000DF93CF9300D000D0CDB7DEB789836A8360
:101B00008981282F30E03C832B838B819C8181301D
:101B10009105D1F02B813C81223031052CF48B8151
:101B20009C81009761F01EC02B813C8122303105E1
:101B300081F08B819C818330910581F013C0EBE3B0
:101B4000F0E08A8180830EC0E8E3F0E08A81808340
:101B500009C0E5E3F0E08A81808304C0E2E3F0E0BD
:101B60008A8180830F900F900F900F90CF91DF911B
:101B70000895DF93CF9300D000D00F92CDB7DEB79A
:101B800089836A838981282F30E03D832C834C81AF
:101B90005D814130510549F18C819D8182309105F3
:101BA00034F42C813D812115310561F057C04C8101
:101BB0005D814230510561F18C819D8183309105B9
:101BC000D1F14CC0E9E3F0E08081282F30E08A8138
:101BD000882F90E0A90102C0559547958A95E2F7B4
:101BE000CA01582F51705B833AC0E6E3F0E0808170
:101BF000282F30E08A81882F90E0A90102C05595F6
:101C000047958A95E2F7CA01582F51705B8327C028
:101C1000E3E3F0E08081282F30E08A81882F90E094
:101C2000A90102C0559547958A95E2F7CA01582F38
:101C300051705B8314C0E0E3F0E08081282F30E036
:101C40008A81882F90E0A90102C0559547958A9511
:101C5000E2F7CA01582F51705B8301C01B828B8150
:101C60000F900F900F900F900F90CF91DF910895EC
:101C7000DF93CF9300D000D0CDB7DEB789836A83DE
:101C80008981282F30E03C832B838B819C8181309C
:101C9000910549F12B813C81223031052CF48B8157
:101CA0009C81009761F05AC02B813C812230310524
:101CB00071F18B819C8183309105E9F14FC0ABE3D9
:101CC000B0E0EBE3F0E08081482F8A81282F30E0FC
:101CD00081E090E0022E02C0880F991F0A94E2F77B
:101CE00084278C933BC0A8E3B0E0E8E3F0E0808178
:101CF000482F8A81282F30E081E090E0022E02C038
:101D0000880F991F0A94E2F784278C9327C0A5E3D4
:101D1000B0E0E5E3F0E08081482F8A81282F30E0B1
:101D200081E090E0022E02C0880F991F0A94E2F72A
:101D300084278C9313C0A2E3B0E0E2E3F0E080815B
:101D4000482F8A81282F30E081E090E0022E02C0E7
:101D5000880F991F0A94E2F784278C930F900F90B5
:101D60000F900F90CF91DF910895DF93CF93CDB770
:101D7000DEB7A7E2B0E0E7E2F0E080818F778C93F6
:101D8000A7E2B0E0E7E2F0E0808180648C93A7E214
:101D9000B0E0E7E2F0E080818F7D8C93A6E2B0E0D6
:101DA000E6E2F0E080818F7D8C93A6E2B0E0E6E28F
:101DB000F0E080818E7F8C93A6E2B0E0E6E2F0E076
:101DC000808182608C93A6E2B0E0E6E2F0E0808160
:101DD00084608C93A6E2B0E0E6E2F0E08081806867
:101DE0008C93CF91DF910895DF93CF9300D00F9222
:101DF000CDB7DEB78B83A7E2B0E0E7E2F0E0808109
:101E0000807E8C93A7E2B0E0E7E2F0E090818B81E6
:101E1000892B8C93A6E2B0E0E6E2F0E0808180645A
:101E20008C93E6E2F0E0808182958F70882F90E0BD
:101E3000817090700097A9F3A6E2B0E0E6E2F0E0CE
:101E4000808180618C93E4E2F0E0808191819A83CB
:101E5000898389819A810F900F900F90CF91DF91A4
:101E60000895DF93CF93CDB7DEB782E060E041E025
:101E70000E94370B82E063E041E00E94370B82E072
:101E800061E041E00E94370B82E062E041E00E94A5
:101E9000370B82E060E041E00E94370C82E063E0B3
:101EA00040E00E94370C82E061E040E00E94370C85
:101EB00082E062E040E00E94370CCF91DF9108950C
:101EC0000F931F93DF93CF93CDB7DEB7C057D040AA
:101ED0000FB6F894DEBF0FBECDBF82E060E041E0F8
:101EE0000E94370C82E063E041E00E94370CFE0163
:101EF000E359FF4F80E090E0A6E9B3E4808391834B
:101F0000A283B3838E0107591F4FFE01E359FF4F90
:101F1000608171818281938120E030E04AEF54E456
:101F20000E941F02DC01CB01F80180839183A28310
:101F3000B383FE01E759FF4F6081718182819381F4
:101F400020E030E040E85FE30E942504882344F469
:101F5000FE01E959FF4F81E090E09183808364C0E6
:101F6000FE01E759FF4F608171818281938120E0FA
:101F70003FEF4FE757E40E94C50318160CF043C02B
:101F8000FE01E359FF4F608171818281938120E0DE
:101F900030E040E251E40E941F02DC01CB018E01DF
:101FA00009591F4FBC01CD010E944900DC01CB0142
:101FB000F801918380831FC0FE01EB59FF4F88EC2D
:101FC00090E091838083FE01EB59FF4F80819181E6
:101FD0000197F1F7FE01EB59FF4F91838083DE01FA
:101FE000A959BF4FFE01E959FF4F808191810197A7
:101FF00011969C938E93FE01E959FF4F8081918148
:102000000097D1F627C08E0109591F4FFE01E759ED
:10201000FF4F60817181828193810E944900DC01C0
:10202000CB01F80191838083DE01AD59BF4FFE01E2
:10203000E959FF4F808191818D939C93FE01ED5969
:10204000FF4F808191810197F1F7FE01ED59FF4F1C
:102050009183808382E063E040E00E94370CFE01C0
:10206000E15AFF4F80E090E0A6E9B3E480839183DA
:10207000A283B3838E01055A1F4FFE01E15AFF4F21
:10208000608171818281938120E030E04AEF54E4E5
:102090000E941F02DC01CB01F80180839183A2839F
:1020A000B383FE01E55AFF4F608171818281938184
:1020B00020E030E040E85FE30E942504882344F4F8
:1020C000FE01E75AFF4F81E090E09183808364C076
:1020D000FE01E55AFF4F608171818281938120E08A
:1020E0003FEF4FE757E40E94C50318160CF043C0BA
:1020F000FE01E15AFF4F608171818281938120E06E
:1021000030E040E251E40E941F02DC01CB018E016D
:10211000075A1F4FBC01CD010E944900DC01CB01D1
:10212000F801918380831FC0FE01E95AFF4F88ECBC
:1021300090E091838083FE01E95AFF4F8081918175
:102140000197F1F7FE01E95AFF4F91838083DE0189
:10215000A75ABF4FFE01E75AFF4F80819181019737
:1021600011969C938E93FE01E75AFF4F80819181D7
:102170000097D1F627C08E01075A1F4FFE01E55A7E
:10218000FF4F60817181828193810E944900DC014F
:10219000CB01F80191838083DE01AB5ABF4FFE0172
:1021A000E75AFF4F808191818D939C93FE01EB5AFA
:1021B000FF4F808191810197F1F7FE01EB5AFF4FAC
:1021C0009183808382E061E041E00E94370CFE0150
:1021D000EF5AFF4F80E090E0A6E9B3E4808391835B
:1021E000A283B3838E01035B1F4FFE01EF5AFF4FA3
:1021F000608171818281938120E030E04AEF54E474
:102200000E941F02DC01CB01F80180839183A2832D
:10221000B383FE01E35BFF4F608171818281938113
:1022200020E030E040E85FE30E942504882344F486
:10223000FE01E55BFF4F81E090E09183808364C005
:10224000FE01E35BFF4F608171818281938120E019
:102250003FEF4FE757E40E94C50318160CF043C048
:10226000FE01EF5AFF4F608171818281938120E0EE
:1022700030E040E251E40E941F02DC01CB018E01FC
:10228000055B1F4FBC01CD010E944900DC01CB0161
:10229000F801918380831FC0FE01E75BFF4F88EC4C
:1022A00090E091838083FE01E75BFF4F8081918105
:1022B0000197F1F7FE01E75BFF4F91838083DE0119
:1022C000A55BBF4FFE01E55BFF4F808191810197C8
:1022D00011969C938E93FE01E55BFF4F8081918167
:1022E0000097D1F627C08E01055B1F4FFE01E35B0F
:1022F000FF4F60817181828193810E944900DC01DE
:10230000CB01F80191838083DE01A95BBF4FFE0101
:10231000E55BFF4F808191818D939C93FE01E95B8A
:10232000FF4F808191810197F1F7FE01E95BFF4F3B
:102330009183808382E060E040E00E94370CFE01E0
:10234000ED5BFF4F80E090E0A6E9B3E480839183EA
:10235000A283B3838E01015C1F4FFE01ED5BFF4F33
:10236000608171818281938120E030E04AEF54E402
:102370000E941F02DC01CB01F80180839183A283BC
:10238000B383FE01FF96608171818281938120E099
:1023900030E040E85FE30E94250488232CF481E0CC
:1023A00090E09EAF8DAF46C0FE01FF9660817181C7
:1023B0008281938120E03FEF4FE757E40E94C503FD
:1023C000181664F5FE01ED5BFF4F6081718182811B
:1023D000938120E030E040E251E40E941F02DC01E2
:1023E000CB01BC01CD010E944900DC01CB019EAFB5
:1023F0008DAF0FC088EC90E09CAF8BAF8BAD9CADE8
:102400000197F1F79CAF8BAF8DAD9EAD01979EAF5D
:102410008DAF8DAD9EAD009769F716C0FE01FF969A
:1024200060817181828193810E944900DC01CB012E
:102430009EAF8DAF8DAD9EAD9AAF89AF89AD9AAD90
:102440000197F1F79AAF89AF82E062E041E00E9424
:10245000370C80E090E0A6E9B3E48DAB9EABAFAB68
:10246000B8AF6DA97EA98FA998AD20E030E04AEF02
:1024700054E40E941F02DC01CB0189AB9AABABABE9
:10248000BCAB69A97AA98BA99CA920E030E040E8FF
:102490005FE30E94250488232CF481E090E098AB50
:1024A0008FA73FC069A97AA98BA99CA920E03FEF1B
:1024B0004FE757E40E94C50318164CF56DA97EA995
:1024C0008FA998AD20E030E040E251E40E941F0265
:1024D000DC01CB01BC01CD010E944900DC01CB0134
:1024E00098AB8FA70FC088EC90E09EA78DA78DA515
:1024F0009EA50197F1F79EA78DA78FA598A9019793
:1025000098AB8FA78FA598A9009769F714C069A900
:102510007AA98BA99CA90E944900DC01CB0198AB48
:102520008FA78FA598A99CA78BA78BA59CA5019782
:10253000F1F79CA78BA782E061E040E00E94370C96
:1025400080E090E0A6E9B3E48FA398A7A9A7BAA773
:102550006FA178A589A59AA520E030E04AEF54E460
:102560000E941F02DC01CB018BA39CA3ADA3BEA3E1
:102570006BA17CA18DA19EA120E030E040E85FE34B
:102580000E94250488232CF481E090E09AA389A37B
:102590003FC06BA17CA18DA19EA120E03FEF4FE742
:1025A00057E40E94C50318164CF56FA178A589A5BC
:1025B0009AA520E030E040E251E40E941F02DC01D5
:1025C000CB01BC01CD010E944900DC01CB019AA3E3
:1025D00089A30FC088EC90E098A38F8F8F8D98A16E
:1025E0000197F1F798A38F8F89A19AA101979AA3D8
:1025F00089A389A19AA1009769F714C06BA17CA156
:102600008DA19EA10E944900DC01CB019AA389A360
:1026100089A19AA19E8F8D8F8D8D9E8D0197F1F747
:102620009E8F8D8F82E063E041E00E94370C80E056
:1026300090E0A6E9B3E4898F9A8FAB8FBC8F698D48
:102640007A8D8B8D9C8D20E030E04AEF54E40E941F
:102650001F02DC01CB018D8B9E8BAF8BB88F6D89F8
:102660007E898F89988D20E030E040E85FE30E940A
:10267000250488232CF481E090E09C8B8B8B3FC059
:102680006D897E898F89988D20E03FEF4FE757E471
:102690000E94C50318164CF5698D7A8D8B8D9C8D23
:1026A00020E030E040E251E40E941F02DC01CB0157
:1026B000BC01CD010E944900DC01CB019C8B8B8BBE
:1026C0000FC088EC90E09A8B898B89899A89019751
:1026D000F1F79A8B898B8B899C8901979C8B8B8BCB
:1026E0008B899C89009769F714C06D897E898F89D1
:1026F000988D0E944900DC01CB019C8B8B8B8B89D0
:102700009C89988B8F878F8598890197F1F7988B93
:102710008F8782E062E040E00E94370C80E090E02A
:10272000A6E9B3E48B879C87AD87BE876B857C85E4
:102730008D859E8520E030E04AEF54E40E941F0220
:10274000DC01CB018F839887A987BA876F81788551
:1027500089859A8520E030E040E85FE30E94250407
:1027600088232CF481E090E09E838D833FC06F81AD
:10277000788589859A8520E03FEF4FE757E40E94EE
:10278000C50318164CF56B857C858D859E8520E0EC
:1027900030E040E251E40E941F02DC01CB01BC01A9
:1027A000CD010E944900DC01CB019E838D830FC0C7
:1027B00088EC90E09C838B838B819C810197F1F75F
:1027C0009C838B838D819E8101979E838D838D81D8
:1027D0009E81009769F714C06F81788589859A85F5
:1027E0000E944900DC01CB019E838D838D819E81F7
:1027F0009A83898389819A810197F1F79A838983E2
:10280000C059DF4F0FB6F894DEBF0FBECDBFCF91DA
:10281000DF911F910F910895DF93CF93CDB7DEB76E
:1028200082E06FE00E94370D82E06FEF0E94780D2A
:10283000CF91DF910895DF93CF93CDB7DEB7639744
:102840000FB6F894DEBF0FBECDBF1B8A1A8A198A55
:102850008FEF888B1F861B8AC7C082E06B8940E0A0
:102860000E94370C1A8AAAC08A89882F90E0FC013E
:10287000E051FE4F908182E0692F0E94B90D898B53
:102880008989882309F097C080E090E0A0EAB1E44C
:102890008B879C87AD87BE876B857C858D859E8564
:1028A00020E030E04AEF54E40E941F02DC01CB013B
:1028B0008F839887A987BA876F81788589859A855C
:1028C00020E030E040E85FE30E94250488232CF4F8
:1028D00081E090E09E838D833FC06F8178858985FC
:1028E0009A8520E03FEF4FE757E40E94C503181692
:1028F0004CF56B857C858D859E8520E030E040E23F
:1029000051E40E941F02DC01CB01BC01CD010E94F9
:102910004900DC01CB019E838D830FC088EC90E0E1
:102920009C838B838B819C810197F1F79C838B83A4
:102930008D819E8101979E838D838D819E810097DD
:1029400069F721C06F81788589859A850E94490041
:10295000DC01CB019E838D838D819E819A83898347
:1029600089819A810197F1F79A8389830CC08A89BA
:10297000882F90E0FC01E051FE4F908182E0692FAA
:102980000E94B90D898B8989882389F38B89482F07
:1029900050E08A89282F30E0CA01880F991F880FDC
:1029A000991F820F931FFC01E452FE4F8081888B98
:1029B00081E08F8707C08A898F5F8A8B8A898430FC
:1029C00008F452CF8B89882F90E0FC01E451FE4F30
:1029D000908182E0692F41E00E94370C8F85813021
:1029E00039F08B898F5F8B8B8B89843008F435CFDE
:1029F000888963960FB6F894DEBF0FBECDBFCF9126
:102A0000DF910895DF93CF930F92CDB7DEB789831F
:102A10000E94B50E89810E94F40E90931302809358
:102A200012022091120230911302C901880F991FDE
:102A3000880F991F820F931FCC01A0E0B0E0BC016A
:102A4000CD010E94A904DC01CB01BC01CD0120E035
:102A500030EC4FE754E40E941903DC01CB01BC01C8
:102A6000CD0120E030E040EA50E40E941903DC018F
:102A7000CB01BC01CD0120E030E048EC52E40E94E3
:102A80001F02DC01CB01BC01CD010E944900DC0129
:102A9000CB019093150280931402809114029091BF
:102AA00015020F90CF91DF910895DF93CF93CDB7AB
:102AB000DEB7AFE4B0E0EFE4F0E08081877F8C9395
:102AC000AFE4B0E0EFE4F0E0808182608C93AEE4AC
:102AD000B0E0EEE4F0E0808188608C93AEE4B0E09A
:102AE000EEE4F0E0808180618C93AFE4B0E0EFE44D
:102AF000F0E080818F7B8C93AFE4B0E0EFE4F0E016
:102B0000808180688C93E6E4F0E08FE19EE491831D
:102B10008083AEE4B0E0EEE4F0E080818E7F8C93C1
:102B2000AEE4B0E0EEE4F0E0808182608C93AEE44D
:102B3000B0E0EEE4F0E080818B7F8C93CF91DF9169
:102B40000895DF93CF930F92CDB7DEB78983EAE480
:102B5000F0E08981282F30E082E390E0AC01249FEF
:102B6000C001259F900D349F900D1124815E9C4DD6
:102B700029E030E0B9010E944530CB019183808388
:102B80000F90CF91DF910895DF93CF93CDB7DEB74C
:102B900029970FB6F894DEBF0FBECDBF89870E947C
:102BA000B50E89850E94F40E98878F838F81988552
:102BB000CC01A0E0B0E0BC01CD010E94A904DC0181
:102BC000CB01BC01CD0126EF38E24CE950E40E9474
:102BD0001F02DC01CB01BC01CD010E944900DC01D8
:102BE000CB019E838D838D819E81CC01A0E0B0E0DE
:102BF000BC01CD010E94A904DC01CB01BC01CD01C7
:102C000020E030E040E251E40E941903DC01CB01F6
:102C100089839A83AB83BC8369817A818B819C8110
:102C20000E944900DC01CB0129960FB6F894DEBF63
:102C30000FBECDBFCF91DF910895DF93CF9300D02A
:102C40000F92CDB7DEB78B830E94B50E8B810E94A9
:102C5000F40E9A83898389819A810F900F900F9047
:102C6000CF91DF910895DF93CF93CDB7DEB72F9744
:102C70000FB6F894DEBF0FBECDBF8F8781E065E051
:102C800040E00E94370C81E066E040E00E94370C93
:102C900082E06F850E94780D81E067E041E00E944C
:102CA000370C80E090E0A0E8BFE38B879C87AD877E
:102CB000BE876B857C858D859E8520E030E04AEF60
:102CC00054E40E941F02DC01CB018F839887A987FF
:102CD000BA876F81788589859A8520E030E040E861
:102CE0005FE30E94250488232CF481E090E09E831A
:102CF0008D833FC06F81788589859A8520E03FEF7D
:102D00004FE757E40E94C50318164CF56B857C8588
:102D10008D859E8520E030E040E251E40E941F0254
:102D2000DC01CB01BC01CD010E944900DC01CB01DB
:102D30009E838D830FC088EC90E09C838B838B8176
:102D40009C810197F1F79C838B838D819E810197F4
:102D50009E838D838D819E81009769F714C06F815A
:102D6000788589859A850E944900DC01CB019E8384
:102D70008D838D819E819A83898389819A81019730
:102D8000F1F79A83898381E067E040E00E94370C85
:102D90002F960FB6F894DEBF0FBECDBFCF91DF9157
:102DA0000895DF93CF93CDB7DEB72F970FB6F89482
:102DB000DEBF0FBECDBF8F8781E065E041E00E949E
:102DC000370C81E066E040E00E94370C82E06F85BE
:102DD0000E94780D81E067E041E00E94370C80E0BE
:102DE00090E0A0E8BFE38B879C87AD87BE876B85AB
:102DF0007C858D859E8520E030E04AEF54E40E947A
:102E00001F02DC01CB018F839887A987BA876F8166
:102E1000788589859A8520E030E040E85FE30E946C
:102E2000250488232CF481E090E09E838D833FC0AD
:102E30006F81788589859A8520E03FEF4FE757E4D9
:102E40000E94C50318164CF56B857C858D859E8583
:102E500020E030E040E251E40E941F02DC01CB019F
:102E6000BC01CD010E944900DC01CB019E838D8312
:102E70000FC088EC90E09C838B838B819C810197B1
:102E8000F1F79C838B838D819E8101979E838D8337
:102E90008D819E81009769F714C06F81788589853F
:102EA0009A850E944900DC01CB019E838D838D8130
:102EB0009E819A83898389819A810197F1F79A8308
:102EC000898381E067E040E00E94370C2F960FB6BF
:102ED000F894DEBF0FBECDBFCF91DF910895DF9391
:102EE000CF93CDB7DEB7E8970FB6F894DEBF0FBE2D
:102EF000CDBF82E06FEF0E94370D81E065E041E0D9
:102F00000E94370B81E066E041E00E94370B81E0D0
:102F100067E041E00E94370B80E090E0ACE0B2E473
:102F20008DAB9EABAFABB8AF6DA97EA98FA998ADA5
:102F300020E030E04AEF54E40E941F02DC01CB01A4
:102F400089AB9AABABABBCAB69A97AA98BA99CA99D
:102F500020E030E040E85FE30E94250488232CF461
:102F600081E090E098AB8FA73FC069A97AA98BA9AF
:102F70009CA920E03FEF4FE757E40E94C5031816D5
:102F80004CF56DA97EA98FA998AD20E030E040E214
:102F900051E40E941F02DC01CB01BC01CD010E9463
:102FA0004900DC01CB0198AB8FA70FC088EC90E003
:102FB0009EA78DA78DA59EA50197F1F79EA78DA72A
:102FC0008FA598A9019798AB8FA78FA598A900976F
:102FD00069F714C069A97AA98BA99CA90E94490024
:102FE000DC01CB0198AB8FA78FA598A99CA78BA7D5
:102FF0008BA59CA50197F1F79CA78BA788E30E945E
:10300000331680E090E0A0E8BFE38FA398A7A9A7BC
:10301000BAA76FA178A589A59AA520E030E04AEF6C
:1030200054E40E941F02DC01CB018BA39CA3ADA33F
:10303000BEA36BA17CA18DA19EA120E030E040E861
:103040005FE30E94250488232CF481E090E09AA39A
:1030500089A33FC06BA17CA18DA19EA120E03FEF81
:103060004FE757E40E94C50318164CF56FA178A5E9
:1030700089A59AA520E030E040E251E40E941F02B9
:10308000DC01CB01BC01CD010E944900DC01CB0178
:103090009AA389A30FC088EC90E098A38F8F8F8D9F
:1030A00098A10197F1F798A38F8F89A19AA1019711
:1030B0009AA389A389A19AA1009769F714C06BA16B
:1030C0007CA18DA19EA10E944900DC01CB019AA3A5
:1030D00089A389A19AA19E8F8D8F8D8D9E8D019739
:1030E000F1F79E8F8D8F8CE00E94331680E090E088
:1030F000A0E8BFE3898F9A8FAB8FBC8F698D7A8DE3
:103100008B8D9C8D20E030E04AEF54E40E941F023A
:10311000DC01CB018D8B9E8BAF8BB88F6D897E8947
:103120008F89988D20E030E040E85FE30E9425041D
:1031300088232CF481E090E09C8B8B8B3FC06D89C1
:103140007E898F89988D20E03FEF4FE757E40E94FA
:10315000C50318164CF5698D7A8D8B8D9C8D20E0FA
:1031600030E040E251E40E941F02DC01CB01BC01CF
:10317000CD010E944900DC01CB019C8B8B8B0FC0E1
:1031800088EC90E09A8B898B89899A890197F1F76D
:103190009A8B898B8B899C8901979C8B8B8B8B89D4
:1031A0009C89009769F714C06D897E898F89988DF5
:1031B0000E944900DC01CB019C8B8B8B8B899C8905
:1031C000988B8F878F8598890197F1F7988B8F87D8
:1031D00081E00E94331680E090E0A0E0B0E48B87AD
:1031E0009C87AD87BE876B857C858D859E8520E01D
:1031F00030E04AEF54E40E941F02DC01CB018F83D0
:103200009887A987BA876F81788589859A8520E014
:1032100030E040E85FE30E94250488232CF481E03D
:1032200090E09E838D833FC06F81788589859A85E4
:1032300020E03FEF4FE757E40E94C50318164CF516
:103240006B857C858D859E8520E030E040E251E4F1
:103250000E941F02DC01CB01BC01CD010E9449008C
:10326000DC01CB019E838D830FC088EC90E09C83B2
:103270008B838B819C810197F1F79C838B838D815C
:103280009E8101979E838D838D819E81009769F732
:1032900014C06F81788589859A850E944900DC0178
:1032A000CB019E838D838D819E819A8389838981C1
:1032B0009A810197F1F79A838983E8960FB6F8947B
:1032C000DEBF0FBECDBFCF91DF910895DF93CF93C7
:1032D00000D0CDB7DEB79A8389830BC0E981FA812C
:1032E000208189819A8101969A838983822F0E9405
:1032F000D116E981FA818081882381F70F900F90A0
:10330000CF91DF910895DF93CF9300D000D0CDB758
:10331000DEB789836A838981282F30E03C832B8341
:103320008B819C81009731F02B813C8121303105CC
:1033300031F009C08A8180580E94331604C08A8106
:1033400080540E9433160F900F900F900F90CF91E2
:10335000DF910895DF93CF9300D000D00F92CDB7C7
:10336000DEB79B838A836C834D8319828C81882F7F
:1033700090E00896880F991F880F991F880F991F52
:103380000E94331619820EC08981282F30E08A816D
:103390009B81FC01E20FF31F80810E94D11689817D
:1033A0008F5F89838981883078F38D816C810E9459
:1033B00083198C810E94D1160F900F900F900F905F
:1033C0000F90CF91DF910895DF93CF9300D000D07D
:1033D000CDB7DEB78C838C81282F30E000D000D0B1
:1033E00000D0EDB7FEB73196CE0101969183808370
:1033F00080E690E093838283358324830E94C230E9
:103400008DB79EB706960FB6F8949EBF0FBE8DBFC0
:10341000CE0101960E9466190F900F900F900F90A9
:10342000CF91DF910895DF93CF93CDB7DEB7279784
:103430000FB6F894DEBF0FBECDBF9F838E8300D042
:1034400000D000D0EDB7FEB73196CE010196918342
:10345000808380E690E0938382838E819F81958331
:1034600084830E94C2308DB79EB706960FB6F8943B
:103470009EBF0FBE8DBFCE0101960E946619279692
:103480000FB6F894DEBF0FBECDBFCF91DF91089588
:10349000DF93CF93CDB7DEB72E970FB6F894DEBF8C
:1034A0000FBECDBF81E00E94331680E090E0A0E81F
:1034B000BFE38B879C87AD87BE876B857C858D85B9
:1034C0009E8520E030E04AEF54E40E941F02DC01B8
:1034D000CB018F839887A987BA876F817885898583
:1034E0009A8520E030E040E85FE30E9425048823CD
:1034F0002CF481E090E09E838D833FC06F817885BE
:1035000089859A8520E03FEF4FE757E40E94C50385
:1035100018164CF56B857C858D859E8520E030E006
:1035200040E251E40E941F02DC01CB01BC01CD014D
:103530000E944900DC01CB019E838D830FC088EC83
:1035400090E09C838B838B819C810197F1F79C8316
:103550008B838D819E8101979E838D838D819E813A
:10356000009769F714C06F81788589859A850E94D4
:103570004900DC01CB019E838D838D819E819A83DE
:10358000898389819A810197F1F79A8389832E969D
:103590000FB6F894DEBF0FBECDBFCF91DF91089577
:1035A000DF93CF9300D0CDB7DEB789836A8389815B
:1035B0006FEF0E94370D8A81882F90E0FC01EC505C
:1035C000FE4F90818981692F0E94780D0F900F9096
:1035D000CF91DF910895DF93CF93CDB7DEB72797D3
:1035E0000FB6F894DEBF0FBECDBF9D838C836E8374
:1035F0004F838AE190E00E94C31D9A838983898169
:103600009A81009709F46FC0809116029091170279
:10361000009741F489819A81909317028093160252
:103620000E94521D8E81823010F081E08E83E981EC
:10363000FA81118E108EE981FA818E81868BE98163
:10364000FA818F81878BE981FA818C819D819183B9
:10365000808389819A8102960E94591E89819A816C
:103660000C960E94591EE981FA8189819A8191877D
:103670008087E981FA8189819A81938B828B8E81FF
:10368000282F30E085E090E0821B930BE981FA81DE
:1036900095878487E981FA81968980911802891734
:1036A00028F4E981FA81868980931802E981FA81F8
:1036B0008689282F30E0C901880F991F880F991F2C
:1036C000880F991F820F931FAC01415E5D4F898166
:1036D0009A819C012E5F3F4FCA01B9010E94691E69
:1036E00081E08B8302C08FEF8B838B8127960FB68F
:1036F000F894DEBF0FBECDBFCF91DF910895DF9369
:10370000CF9300D000D000D0CDB7DEB79C838B83A1
:103710007E836D832091190230911A028B819C81E6
:10372000820F931F9A8389838091160290911702CA
:1037300002960E94211FE0911602F09117028981E2
:103740009A81938382832091190230911A02898190
:103750009A818217930770F48091450290914602F6
:1037600020911602309117022E5F3F4FB9010E943F
:10377000B51E0DC080914302909144022091160223
:10378000309117022E5F3F4FB9010E94B51E8D8107
:103790009E81009761F080911602909117029C0122
:1037A000245F3F4F8D819E81B9010E94B51E2696F0
:1037B0000FB6F894DEBF0FBECDBFCF91DF91089555
:1037C000DF93CF9300D0CDB7DEB73AC0F894E09145
:1037D0004C02F0914D02868197819A838983898179
:1037E0009A810C960E94211F789489819A81029671
:1037F0000E94211FE981FA81968980911802891718
:1038000028F4E981FA81868980931802E981FA8196
:103810008689282F30E0C901880F991F880F991FCA
:10382000880F991F820F931FAC01415E5D4F898104
:103830009A819C012E5F3F4FCA01B9010E94691E07
:1038400080914702882309F0C1CF0F900F90CF914C
:10385000DF910895DF93CF9300D000D0CDB7DEB7CE
:103860000E948F2920911B0230911C02821B930B16
:1038700090931E0280931D0285C080911902909141
:103880001A02019690931A028093190280911D02E8
:1038900090911E02019790931E0280931D028091C9
:1038A000190290911A02009709F064C080914302B6
:1038B000909144029A8389838091450290914602B7
:1038C000909344028093430289819A8190934602A7
:1038D000809345024FC0E0914302F091440205807D
:1038E000F681E02D868197819C838B83EB81FC811F
:1038F000228133818091190290911A0282179307D5
:1039000008F440C0F8948B819C8102960E94211F8C
:10391000EB81FC8184899589009729F08B819C81BA
:103920000C960E94211F7894EB81FC8196898091EE
:103930001802891728F4EB81FC818689809318028C
:10394000EB81FC818689282F30E0C901880F991FFF
:10395000880F991F880F991F820F931FAC01415E3A
:103960005D4F8B819C819C012E5F3F4FCA01B90145
:103970000E94691EE0914302F091440280818823F5
:1039800009F0A9CF80911D0290911E02009709F0C5
:1039900074CF8091190290911A0290931C02809327
:1039A0001B020F900F900F900F90CF91DF91089511
:1039B000DF93CF9300D0CDB7DEB70E94E01B0E940B
:1039C0002A1C0AC080911802882309F466C08091DD
:1039D000180281508093180280911802282F30E03D
:1039E000C901880F991F880F991F880F991F820F8F
:1039F000931FFC01E15EFD4F8081882319F38091C4
:103A00001802282F30E0C901880F991F880F991FCD
:103A1000880F991F820F931F815E9D4F9A83898320
:103A2000E981FA810180F281E02D82819381E9812F
:103A3000FA8192838183E981FA81218132818981AE
:103A40009A8103962817390759F4E981FA81018090
:103A5000F281E02D82819381E981FA8192838183D1
:103A6000E981FA810180F281E02D8681978190932E
:103A7000170280931602E0911602F091170240811E
:103A800051818091160290911702E0911602F091F7
:103A900017022789622FFA0109950F900F90CF9195
:103AA000DF910895DF93CF930F92CDB7DEB71982E0
:103AB00013C08981282F30E0C901880F991F880F12
:103AC000991F880F991F820F931F815E9D4F0E943F
:103AD0002F1E89818F5F89838981823050F381E332
:103AE00092E00E942F1E8AE392E00E942F1E87E43C
:103AF00092E00E942F1E81E392E090934402809313
:103B000043028AE392E090934602809345020F902D
:103B1000CF91DF910895DF93CF9300D000D00F9223
:103B2000CDB7DEB79D838C83EC81FD810580F68166
:103B3000E02D868197819B838A838A819B810C9665
:103B40000E94211F8A819B819C01245F3F4F87E453
:103B500092E0B9010E94691EEA81FB819689E09199
:103B60001602F09117028689981718F081E0898370
:103B700001C0198289810F900F900F900F900F90C4
:103B8000CF91DF910895DF93CF9300D000D0CDB7D0
:103B9000DEB79C838B831A8219820E94F928809158
:103BA0005002909151022B813C81820F931F22E0A1
:103BB0008835920718F520915002309151028B817F
:103BC0009C81280F391F80915002909151028217D9
:103BD0009307A0F480915002909151028E5A9D4F0C
:103BE0009A83898320915002309151028B819C816C
:103BF000820F931F90935102809350020E940529D7
:103C000089819A810F900F900F900F90CF91DF9143
:103C10000895DF93CF9300D0CDB7DEB79A83898321
:103C20000F900F90CF91DF910895DF93CF93CDB791
:103C3000DEB71092510210925002CF91DF91089599
:103C4000DF93CF93CDB7DEB7209150023091510270
:103C500088E592E0821B930BCF91DF910895DF936B
:103C6000CF9300D0CDB7DEB79A83898389819A81BB
:103C70000396E981FA8192838183E981FA818FEF4A
:103C80009FEF9483838389819A810396E981FA81E6
:103C90009683858389819A810396E981FA81908749
:103CA0008783E981FA8110820F900F90CF91DF9185
:103CB0000895DF93CF9300D0CDB7DEB79A83898381
:103CC000E981FA81118610860F900F90CF91DF91D4
:103CD0000895DF93CF9300D000D000D0CDB7DEB7EA
:103CE0009C838B837E836D83EB81FC8181819281B8
:103CF0009A838983E981FA8182819381ED81FE81B2
:103D000093838283EB81FC8181819281ED81FE81AD
:103D100095838483E981FA810280F381E02D8D818E
:103D20009E81958384838D819E81E981FA8193832D
:103D300082838D819E81EB81FC8192838183ED81E1
:103D4000FE818B819C8191878087EB81FC818081C2
:103D50008F5FEB81FC81808326960FB6F894DEBFDF
:103D60000FBECDBFCF91DF910895DF93CF93CDB735
:103D7000DEB728970FB6F894DEBF0FBECDBF9E8387
:103D80008D8378876F83EF81F885808191819A8315
:103D9000898389819A812FEF8F3F920739F4ED81D2
:103DA000FE81878190859C838B8318C08D819E8145
:103DB00003969C838B8306C0EB81FC818281938177
:103DC0009C838B83EB81FC810280F381E02D208139
:103DD000318189819A818217930770F7EB81FC8189
:103DE00082819381EF81F88593838283EF81F885C7
:103DF0000280F381E02D8F81988595838483EF8104
:103E0000F8858B819C81958384838F819885EB8154
:103E1000FC8193838283EF81F8858D819E819187D8
:103E20008087ED81FE8180818F5FED81FE818083BF
:103E300028960FB6F894DEBF0FBECDBFCF91DF91AD
:103E40000895DF93CF9300D000D0CDB7DEB79C8329
:103E50008B83EB81FC81A281B381EB81FC81848126
:103E6000958115969C938E931497EB81FC81A48188
:103E7000B581EB81FC818281938113969C938E9313
:103E80001297EB81FC81808591859A838983E981F2
:103E9000FA81218132818B819C812817390741F475
:103EA000EB81FC8184819581E981FA819283818310
:103EB000EB81FC8111861086E981FA818081815035
:103EC000E981FA8180830F900F900F900F90CF912E
:103ED000DF910895DF93CF93CDB7DEB728970FB664
:103EE000F894DEBF0FBECDBF9C838B837E836D8332
:103EF00058874F83EB81FC8181E180838B819C819A
:103F000001979C838B83EB81FC8182E280838B8190
:103F10009C8101979C838B83EB81FC8183E380836D
:103F20008B819C8101979C838B838D819E819A8359
:103F300089838981EB81FC8180838B819C810197BE
:103F40009C838B8389819A81892F99279A8389837E
:103F50008981EB81FC8180838B819C8101979C838B
:103F60008B83EB81FC8110828B819C8101979C83E8
:103F70008B83EB81FC8180E880838B819C8101971E
:103F80009C838B83EB81FC8110828B819C810197C8
:103F90009C838B83EB81FC8182E080838B819C817D
:103FA00001979C838B83EB81FC8183E080838B81F1
:103FB0009C8101979C838B83EB81FC8184E08083CF
:103FC0008B819C8101979C838B83EB81FC8185E0B5
:103FD00080838B819C8101979C838B83EB81FC8107
:103FE00086E080838B819C8101979C838B83EB810E
:103FF000FC8187E080838B819C8101979C838B83EC
:10400000EB81FC8188E080838B819C8101979C837C
:104010008B83EB81FC8189E080838B819C8101977C
:104020009C838B83EB81FC8180E180838B819C81ED
:1040300001979C838B83EB81FC8181E180838B8161
:104040009C8101979C838B83EB81FC8182E180833F
:104050008B819C8101979C838B83EB81FC8183E125
:1040600080838B819C8101979C838B83EB81FC8176
:1040700084E180838B819C8101979C838B83EB817E
:10408000FC8185E180838B819C8101979C838B835C
:10409000EB81FC8186E180838B819C8101979C83ED
:1040A0008B83EB81FC8187E180838B819C810197ED
:1040B0009C838B83EB81FC8188E180838B819C8155
:1040C00001979C838B83EB81FC8189E180838B81C9
:1040D0009C8101979C838B83EB81FC8180E28083B0
:1040E0008B819C8101979C838B83EB81FC8181E296
:1040F00080838B819C8101979C838B83EB81FC81E6
:1041000082E280838B819C8101979C838B83EB81EE
:10411000FC8183E280838B819C8101979C838B83CC
:104120008F8198859A8389838981EB81FC81808343
:104130008B819C8101979C838B8389819A81892FB4
:1041400099279A8389838981EB81FC8180838B8184
:104150009C8101979C838B83EB81FC8186E2808329
:104160008B819C8101979C838B83EB81FC8187E20F
:1041700080838B819C8101979C838B83EB81FC8165
:1041800088E280838B819C8101979C838B83EB8168
:10419000FC8189E280838B819C8101979C838B8346
:1041A000EB81FC8180E380838B819C8101979C83E0
:1041B0008B83EB81FC8181E380838B819C810197E0
:1041C0009C838B838B819C8128960FB6F894DEBFED
:1041D0000FBECDBFCF91DF910895DF93CF93CDB7C1
:1041E000DEB70E94DD21A091AA04B091AB04CD916D
:1041F000CDBFDD91DEBFFF91EF91DF91CF91BF91F8
:10420000AF919F918F917F916F915F914F913F916E
:104210002F911F910F91FF90EF90DF90CF90BF9063
:10422000AF909F908F907F906F905F904F903F9056
:104230002F901F900F900FBE0F90089581E0CF91A7
:10424000DF910895DF93CF93CDB7DEB7CF91DF91A4
:1042500008950F920FB6F8940F921F9211242F9287
:104260003F924F925F926F927F928F929F92AF9206
:10427000BF92CF92DF92EF92FF920F931F932F93F3
:104280003F934F935F936F937F938F939F93AF93DE
:10429000BF93CF93DF93EF93FF93A091AA04B091C4
:1042A000AB040DB60D920EB60D920E94992AA09104
:1042B000AA04B091AB04CD91CDBFDD91DEBFFF91DB
:1042C000EF91DF91CF91BF91AF919F918F917F91AE
:1042D0006F915F914F913F912F911F910F91FF909F
:1042E000EF90DF90CF90BF90AF909F908F907F9096
:1042F0006F905F904F903F902F901F900F900FBE48
:104300000F9008950F920FB6F8940F921F921124F8
:104310002F923F924F925F926F927F928F929F92D5
:10432000AF92BF92CF92DF92EF92FF920F931F93C3
:104330002F933F934F935F936F937F938F939F93AD
:10434000AF93BF93CF93DF93EF93FF93A091AA0412
:10435000B091AB040DB60D920EB60D920E94C42919
:104360000E94992AA091AA04B091AB04CD91CDBF2F
:10437000DD91DEBFFF91EF91DF91CF91BF91AF91C2
:104380009F918F917F916F915F914F913F912F916D
:104390001F910F91FF90EF90DF90CF90BF90AF9063
:1043A0009F908F907F906F905F904F903F902F9055
:1043B0001F900F900FBE0F900895DF93CF9300D002
:1043C00000D000D0CDB7DEB780E49FE1A0E0B0E040
:1043D0008B839C83AD83BE838B819C81AD81BE81A9
:1043E000689415F8B695A795979587951694D1F783
:1043F0008B839C83AD83BE838B819C81AD81BE8189
:104400000197A109B1098B839C83AD83BE838B8106
:1044100089838B819C81AD81BE81892F9A2FAB2F9F
:10442000BB278B839C83AD83BE838B818A83EBE424
:10443000F0E08A818083EAE4F0E0898180838BE088
:104440008983EEE4F0E089818083E9E5F0E0808112
:104450008983898180618983E9E5F0E089818083AE
:1044600026960FB6F894DEBF0FBECDBFCF91DF9179
:1044700008950E9482211895DF93CF93CDB7DEB7C0
:1044800028970FB6F894DEBF0FBECDBF8F83688725
:104490001A8219828F81882309F48CC08FE190E001
:1044A0000E94C31D9E838D838D819E81009709F498
:1044B00081C08F81282F30E08885882F90E0AC0163
:1044C000249FC001259F900D349F900D11240196CB
:1044D0009C838B838B819C810E94C31DED81FE8117
:1044E00091838083ED81FE8180819181009709F421
:1044F0005DC0ED81FE81408151818F81282F30E0A8
:104500008885882F90E0BC01269FC001279F900DD1
:10451000369F900D1124840F951FED81FE819383AA
:104520008283ED81FE81128EED81FE8180819181F9
:10453000ED81FE8195838483ED81FE8140815181EF
:104540008F81882F90E09C01215030408885882FF2
:1045500090E0BC01269FC001279F900D369F900DD3
:104560001124840F951FED81FE8197838683ED8151
:10457000FE818F81838FED81FE818885848FED811F
:10458000FE818FEF858FED81FE818FEF868F8D818C
:104590009E8108960E942F1E8D819E8141960E94C9
:1045A0002F1E8D819E819A83898304C08D819E8177
:1045B0000E94091E89819A8128960FB6F894DEBF61
:1045C0000FBECDBFCF91DF910895DF93CF93CDB7CD
:1045D000DEB72C970FB6F894DEBF0FBECDBF9E831B
:1045E0008D8378876F835A8749872B8719820FB607
:1045F000F8940F92ED81FE81928DED81FE81838D85
:104600009817D8F48D819E812F813885B9014B850B
:104610000E942025ED81FE818189882349F08D81CA
:104620009E8141960E94352B813011F40E942921F0
:104630000F900FBE81E08C875CC089859A850097BA
:1046400021F40F900FBE1C8654C08981882331F459
:10465000CE0102960E949D2B81E089830F900FBEB0
:104660000E94F9280FB6F8940F92ED81FE81858D96
:104670008F3F19F4ED81FE81158EED81FE81868DCF
:104680008F3F19F4ED81FE81168E0F900FBECE0183
:1046900002969E01275F3F4FB9010E94B62B8823E7
:1046A00009F58D819E810E9484268823A1F08D8149
:1046B0009E81089629853A85B9010E94FF2A8D813D
:1046C0009E810E94FD250E940529882309F08FCF35
:1046D0000E9429218CCF8D819E810E94FD250E9400
:1046E000052985CF8D819E810E94FD250E94052987
:1046F0001C868C852C960FB6F894DEBF0FBECDBFFE
:10470000CF91DF910895DF93CF93CDB7DEB729978F
:104710000FB6F894DEBF0FBECDBF9C838B837E8324
:104720006D8358874F8329871982EB81FC81928D95
:10473000EB81FC81838D981740F58B819C812D81C5
:104740003E81B90149850E942025EB81FC81868D3F
:104750008F3F89F4EB81FC818189882399F08B81DB
:104760009C8141960E94352B882361F0EF81F8856A
:1047700081E0808307C0EB81FC81868D8F5FEB81B8
:10478000FC81868F81E08A8301C01A828A81299602
:104790000FB6F894DEBF0FBECDBFCF91DF91089565
:1047A000DF93CF93CDB7DEB72E970FB6F894DEBF69
:1047B0000FBECDBF98878F837A8769875C874B87C9
:1047C0002D871B820FB6F8940F92EF81F885828DAA
:1047D000882309F43FC0EF81F885868197819A8309
:1047E00089838F81988529853A85B9010E94B525ED
:1047F0008D858823B1F4EF81F885828D8150EF811A
:10480000F885828FEF81F88580858823F1F08F818C
:10481000988508960E94352B8130B9F40E94292191
:1048200014C0EF81F88589819A8197838683EF810F
:10483000F8858189882349F08F81988541960E9467
:10484000352B882311F00E9429210F900FBE81E0A3
:104850008E875CC08B859C85009721F40F900FBEDE
:104860001E8654C08B81882331F4CE0104960E94A9
:104870009D2B81E08B830F900FBE0E94F9280FB60D
:10488000F8940F92EF81F885858D8F3F19F4EF81B1
:10489000F885158EEF81F885868D8F3F19F4EF81AD
:1048A000F885168E0F900FBECE0104969E01255FEF
:1048B0003F4FB9010E94B62B882309F58F81988557
:1048C0000E9451268823A1F08F81988541962B85DF
:1048D0003C85B9010E94FF2A8F8198850E94FD25A1
:1048E0000E940529882309F06DCF0E9429216ACFF3
:1048F0008F8198850E94FD250E94052963CF8F81B5
:1049000098850E94FD250E9405291E868E852E967B
:104910000FB6F894DEBF0FBECDBFCF91DF910895E3
:10492000DF93CF93CDB7DEB728970FB6F894DEBFED
:104930000FBECDBF9C838B837E836D8358874F834F
:104940001982EB81FC81828D882371F18B819C819E
:104950002D813E81B9010E94B525EB81FC81828DBC
:104960008150EB81FC81828FEB81FC81858D8F3FB3
:1049700089F4EB81FC818085882399F08B819C816F
:1049800008960E94352B882361F0EF81F88581E03D
:10499000808307C0EB81FC81858D8F5FEB81FC817B
:1049A000858F81E08A8301C01A828A8128960FB69A
:1049B000F894DEBF0FBECDBFCF91DF910895DF9396
:1049C000CF9300D00F92CDB7DEB79B838A830FB60B
:1049D000F8940F92EA81FB81828D89830F900FBE3C
:1049E00089810F900F900F90CF91DF910895DF9301
:1049F000CF9300D00F92CDB7DEB79B838A83EA8135
:104A0000FB81828D898389810F900F900F90CF91C8
:104A1000DF910895DF93CF9300D0CDB7DEB79A83AF
:104A20008983E981FA81808191810E94091E8981AF
:104A30009A810E94091E0F900F90CF91DF910895E7
:104A4000DF93CF9300D000D00F92CDB7DEB79A831B
:104A500089837C836B834D83E981FA81848D8823EC
:104A600009F474C08D81882399F5E981FA81648104
:104A70007581E981FA81848D482F50E02B813C813A
:104A8000CB01B9010E94A330E981FA8124813581EB
:104A9000E981FA81848D882F90E0820F931FE9814C
:104AA000FA8195838483E981FA8124813581E981C2
:104AB000FA81828193812817390708F447C0E98178
:104AC000FA8180819181E981FA81958384833EC056
:104AD000E981FA8166817781E981FA81848D482FA5
:104AE00050E02B813C81CB01B9010E94A330E981C8
:104AF000FA8126813781E981FA81848D882F90E0BF
:104B0000909581959F4F820F931FE981FA8197833A
:104B10008683E981FA8126813781E981FA81808162
:104B200091812817390790F4E981FA812281338134
:104B3000E981FA81848D882F90E0909581959F4F2F
:104B4000820F931FE981FA8197838683E981FA8135
:104B5000828D8F5FE981FA81828F0F900F900F9085
:104B60000F900F90CF91DF910895DF93CF9300D0F6
:104B700000D0CDB7DEB79A8389837C836B83E981CC
:104B8000FA8180819181009789F1E981FA812681FA
:104B90003781E981FA81848D882F90E0820F931FFD
:104BA000E981FA8197838683E981FA8126813781B9
:104BB000E981FA81828193812817390740F0E981E0
:104BC000FA8180819181E981FA8197838683E981E5
:104BD000FA8146815781E981FA81848D282F30E05E
:104BE0008B819C81BA01A9010E94A3300F900F9084
:104BF0000F900F90CF91DF910895DF93CF9300D066
:104C0000CDB7DEB79A8389830FB6F8940F9215C09B
:104C1000E981FA8181898823A9F089819A81419665
:104C20000E94352B882311F00E94132CE981FA8110
:104C3000868D8150E981FA81868FE981FA81868D9E
:104C4000181634F3E981FA818FEF868F0F900FBE2B
:104C50000FB6F8940F9215C0E981FA8180858823F8
:104C6000A9F089819A8108960E94352B882311F03A
:104C70000E94132CE981FA81858D8150E981FA81A6
:104C8000858FE981FA81858D181634F3E981FA81DF
:104C90008FEF858F0F900FBE0F900F90CF91DF9108
:104CA0000895DF93CF9300D00F92CDB7DEB79B83EB
:104CB0008A830FB6F8940F92EA81FB81828D198264
:104CC000882311F481E089830F900FBE89810F90B2
:104CD0000F900F90CF91DF910895DF93CF9300D085
:104CE0000F92CDB7DEB79B838A83EA81FB81828DE9
:104CF0001982882311F481E0898389810F900F90B4
:104D00000F90CF91DF910895DF93CF9300D00F9252
:104D1000CDB7DEB79B838A830FB6F8940F92EA81F2
:104D2000FB81928DEA81FB81838D1982981711F4A2
:104D300081E089830F900FBE89810F900F900F90B3
:104D4000CF91DF910895DF93CF9300D00F92CDB72D
:104D5000DEB79B838A83EA81FB81928DEA81FB81A6
:104D6000838D1982981711F481E0898389810F90CE
:104D70000F900F90CF91DF910895AF92BF92CF9295
:104D8000DF92EF92FF920F931F93DF93CF93CDB7F4
:104D9000DEB764970FB6F894DEBF0FBECDBF9F831A
:104DA0008E83798768875B874A873D872C870E8744
:104DB000F88AEF86DA8AC98ABC8AAB8A8A859B859B
:104DC00029893A89B9010E94422D9C838B838B816A
:104DD0009C81009709F499C0EB81FC812789308D73
:104DE0008A859B850197820F931F9A8389838B8184
:104DF0009C8128853985EB89FC89AA85BB85B90109
:104E00004E859F018D010E94272C89819A812E81D8
:104E10003F814C855D85B9010E946A1FEB81FC8151
:104E2000918380838F859889009731F0EF85F88989
:104E30008B819C81918380830FB6F8940F9280912F
:104E4000AD048F5F8093AD048091AA049091AB0470
:104E5000009769F48B819C819093AB048093AA04A2
:104E60008091AD048130A9F40E947E2C12C0809103
:104E7000B204882371F4E091AA04F091AB049689FE
:104E80008E85891730F08B819C819093AB04809341
:104E9000AA04EB81FC8196898091B004891728F4DB
:104EA000EB81FC8186898093B0048091B7048F5F89
:104EB0008093B704EB81FC8196898091B1048917B6
:104EC00028F4EB81FC8186898093B104EB81FC811D
:104ED0008689282F30E0C901880F991F880F991FF4
:104EE000880F991F820F931FAC0148545B4F8B8131
:104EF0009C819C012E5F3F4FCA01B9010E94691E2F
:104F000081E08D830F900FBE02C08FEF8D838D8166
:104F1000813071F48091B204882351F0E091AA04A9
:104F2000F091AB0496898E85981710F40E94292180
:104F30008D8164960FB6F894DEBF0FBECDBFCF91C2
:104F4000DF911F910F91FF90EF90DF90CF90BF9076
:104F5000AF900895DF93CF9300D000D000D0CDB7AD
:104F6000DEB79C838B830FB6F8940F922091AA042E
:104F70003091AB048B819C818217930711F41C82C2
:104F80001B828B819C81009739F48091AA049091B7
:104F9000AB049E838D8304C08B819C819E838D8313
:104FA0008D819E819A83898389819A8102960E944C
:104FB000211FE981FA8184899589009729F08981E7
:104FC0009A810C960E94211F89819A819C012E5FF3
:104FD0003F4F84E095E0B9010E94691E8091AC04C6
:104FE0008F5F8093AC048091B7048F5F8093B70488
:104FF0000F900FBE8091B204882331F08B819C8189
:10500000009711F40E94292126960FB6F894DEBF6E
:105010000FBECDBFCF91DF910895DF93CF93CDB772
:10502000DEB728970FB6F894DEBF0FBECDBF9E83C4
:105030008D8378876F8319820E94F928ED81FE8124
:10504000208131818F819885820F931F9C838B8370
:10505000ED81FE81208131818091AE049091AF0479
:1050600082179307A8F4ED81FE81208131818B8125
:105070009C818217930700F52091AE043091AF0414
:105080008B819C8128173907B8F481E0898314C08B
:10509000ED81FE81208131818B819C818217930774
:1050A00048F02091AE043091AF048B819C81281789
:1050B000390710F481E08983ED81FE818B819C8129
:1050C000918380838981882359F08091AA049091EB
:1050D000AB0402960E94211F8B819C810E94F92CB7
:1050E0000E9405298A838A81882311F40E9429213C
:1050F00028960FB6F894DEBF0FBECDBFCF91DF91DB
:105100000895DF93CF9300D000D00F92CDB7DEB7D4
:105110009D838C8319828C819D810097D1F00E94A0
:10512000F9282091AE043091AF048C819D81820FCB
:10513000931F9B838A838091AA049091AB0402966B
:105140000E94211F8A819B810E94F92C0E940529BF
:1051500089838981882311F40E9429210F900F905F
:105160000F900F900F90CF91DF910895AF92BF9263
:10517000CF92DF92EF92FF920F93DF93CF930F9234
:10518000CDB7DEB723E630E08DE19CE2B90145E51D
:1051900050E020E030E000E0EE24FF24CC24DD24C9
:1051A000AA24BB240E94BD2689838981813051F4C1
:1051B000F89481E08093B2041092AF041092AE0490
:1051C0000E94ED200F90CF91DF910F91FF90EF9013
:1051D000DF90CF90BF90AF900895DF93CF93CDB77E
:1051E000DEB7F8941092B2040E942221CF91DF9191
:1051F0000895DF93CF93CDB7DEB78091B3048F5F6F
:105200008093B304CF91DF910895DF93CF9300D0C3
:1052100000D0CDB7DEB71A820FB6F8940F92809106
:10522000B30481508093B3048091B304882309F0C0
:105230006CC08091AD04882309F467C0198241C015
:10524000E0910005F0910105868197819C838B8315
:105250008B819C810C960E94211F8B819C810296E0
:105260000E94211FEB81FC8196898091B1048917EE
:1052700028F4EB81FC8186898093B104EB81FC8169
:105280008689282F30E0C901880F991F880F991F40
:10529000880F991F820F931F88549B4F2B813C814D
:1052A0002E5F3F4FB9010E94691EEB81FC819689F8
:1052B000E091AA04F091AB048689981710F081E080
:1052C00089838091FB04882309F0BACF8091B404CC
:1052D000882371F007C00E94C4298091B4048150D2
:1052E0008093B4048091B4048823A9F781E0898372
:1052F0008981813021F08091B504813031F481E0E1
:105300008A831092B5040E9429210F900FBE8A81D2
:105310000F900F900F900F90CF91DF910895DF9332
:10532000CF9300D0CDB7DEB70FB6F8940F9280912F
:10533000AE049091AF049A8389830F900FBE898148
:105340009A810F900F90CF91DF910895DF93CF93C3
:1053500000D00F92CDB7DEB719828091AE04909144
:10536000AF049B838A838A819B810F900F900F905B
:10537000CF91DF910895DF93CF93CDB7DEB78091C2
:10538000AD04CF91DF910895DF93CF9300D000D08B
:1053900000D0CDB7DEB78091B304882309F0BBC03D
:1053A0008091AE049091AF0401969093AF048093E6
:1053B000AE048091AE049091AF040097D1F5809136
:1053C000F7049091F8049C838B838091F904909169
:1053D000FA049093F8048093F7048B819C81909356
:1053E000FA048093F9048091B6048F5F8093B60429
:1053F000E091F704F091F8048081882339F48FEF6D
:105400009FEF9093FF018093FE0113C0E091F7049A
:10541000F091F8040580F681E02D868197819E83C6
:105420008D83ED81FE81828193819093FF01809332
:10543000FE012091AE043091AF048091FE01909165
:10544000FF012817390708F46BC0E091F704F091C9
:10545000F8048081882339F48FEF9FEF9093FF0148
:105460008093FE015DC0E091F704F091F80405809F
:10547000F681E02D868197819E838D83ED81FE816B
:10548000828193819A8389832091AE043091AF0405
:1054900089819A812817390738F489819A819093F4
:1054A000FF018093FE013CC08D819E8102960E9487
:1054B000211FED81FE8184899589009729F08D81D6
:1054C0009E810C960E94211FED81FE81968980911C
:1054D000B104891728F4ED81FE8186898093B10497
:1054E000ED81FE818689282F30E0C901880F991F40
:1054F000880F991F880F991F820F931FAC01485482
:105500005B4F8D819E819C012E5F3F4FCA01B90187
:105510000E94691E9ACF8091B4048F5F8093B40477
:1055200026960FB6F894DEBF0FBECDBFCF91DF91A8
:105530000895DF93CF9300D0CDB7DEB78091B30449
:10554000882349F081E08093B50454C08091B10470
:1055500081508093B1048091B104282F30E0C901BB
:10556000880F991F880F991F880F991F820F931F0B
:10557000FC01E854FB4F8081882341F38091B10402
:10558000282F30E0C901880F991F880F991F880FB5
:10559000991F820F931F88549B4F9A838983E981B7
:1055A000FA810180F281E02D82819381E981FA8183
:1055B00092838183E981FA812181328189819A8173
:1055C00003962817390759F4E981FA810180F2819D
:1055D000E02D82819381E981FA8192838183E9813F
:1055E000FA810180F281E02D868197819093AB044E
:1055F0008093AA040F900F90CF91DF910895DF93CD
:10560000CF9300D000D000D0CDB7DEB79C838B8382
:105610007E836D834B815C818091AA049091AB0461
:105620009C01245F3F4FCA01B9010E94B51E8091C1
:10563000AA049091AB0402960E94211F2091AE040F
:105640003091AF048D819E81820F931F9A8389834D
:1056500089819A810E94F92C26960FB6F894DEBFB4
:105660000FBECDBFCF91DF910895DF93CF9300D0D0
:1056700000D00F92CDB7DEB79D838C83EC81FD8186
:105680000580F681E02D868197819B838A838A81BC
:105690009B810C960E94211F8091B304882361F5A1
:1056A0008A819B8102960E94211FEA81FB81968953
:1056B0008091B104891728F4EA81FB81868980935F
:1056C000B104EA81FB818689282F30E0C901880F67
:1056D000991F880F991F880F991F820F931FAC0184
:1056E00048545B4F8A819B819C012E5F3F4FCA01CA
:1056F000B9010E94691E0AC08A819B819C01245FB6
:105700003F4F8BEF94E0B9010E94691EEA81FB8153
:105710009689E091AA04F091AB048689981718F055
:1057200081E0898301C0198289810F900F900F90C9
:105730000F900F90CF91DF910895DF93CF9300D01A
:10574000CDB7DEB79A8389838091B604E981FA8167
:1057500080838091AE049091AF04E981FA819283B5
:1057600081830F900F90CF91DF910895DF93CF93B6
:1057700000D000D00F92CDB7DEB79B838A837D83A4
:105780006C830FB6F8940F92EA81FB81908180912F
:10579000B604981771F0EA81FB81218132818091F2
:1057A000AE049091AF048217930718F081E08983CB
:1057B0002FC02091AE043091AF04EA81FB8181813A
:1057C0009281281B390BEC81FD8180819181281702
:1057D0003907E0F4EC81FD8140815181EA81FB8150
:1057E000218132818091AE049091AF04B901681B90
:1057F000790BCB01840F951FEC81FD819183808310
:105800008A819B810E949D2B198202C081E089833D
:105810000F900FBE89810F900F900F900F900F90F7
:10582000CF91DF910895DF93CF93CDB7DEB781E0BD
:105830008093B504CF91DF910895DF93CF9300D08B
:10584000CDB7DEB79A8389830E94BB2CFDCF0F931F
:105850001F93DF93CF93CDB7DEB729970FB6F89498
:10586000DEBF0FBECDBF9A8389837C836B834D835C
:105870003F832E831987088789819A8149962B81D6
:105880003C81B90148E050E00E94B330E981FA81DF
:1058900010A28D81853010F084E08D83E981FA813A
:1058A0008D81868B89819A8102960E94591E8981F9
:1058B0009A810C960E94591EE981FA8189819A8108
:1058C000918780878D81282F30E085E090E0821BD2
:1058D000930BE981FA8195878487E981FA8189812F
:1058E0009A81938B828B29960FB6F894DEBF0FBEF8
:1058F000CDBFCF91DF911F910F910895DF93CF938B
:105900000F92CDB7DEB7198213C08981282F30E0FE
:10591000C901880F991F880F991F880F991F820F3F
:10592000931F88549B4F0E942F1E89818F5F89830C
:105930008981853050F385EE94E00E942F1E8EEE13
:1059400094E00E942F1E8BEF94E00E942F1E84E0B3
:1059500095E00E942F1E85EE94E09093F8048093CA
:10596000F7048EEE94E09093FA048093F9040F907C
:10597000CF91DF910895DF93CF9300D00F92CDB7F1
:10598000DEB78091AC04882371F10E94F9288091E0
:1059900004051B82882311F481E08B830E94052972
:1059A0008B81882301F50FB6F8940F92E0910905D9
:1059B000F0910A05868197819A83898389819A81EA
:1059C00002960E94211F8091AD0481508093AD0406
:1059D0008091AC0481508093AC040F900FBE8981FC
:1059E0009A810E94922D0F900F900F90CF91DF918E
:1059F0000895DF93CF9300D0CDB7DEB79A83898324
:105A0000E091AA04F091AB0489819A819383828307
:105A10002091AE043091AF0489819A818217930757
:105A200070F48091F9049091FA042091AA043091C5
:105A3000AB042E5F3F4FB9010E94B51E1EC04091BE
:105A4000F7045091F8048091AA049091AB049C0152
:105A50002E5F3F4FCA01B9010E94B51E2091FE0181
:105A60003091FF0189819A818217930730F48981EF
:105A70009A819093FF018093FE010F900F90CF9138
:105A8000DF910895DF93CF93CDB7DEB728970FB698
:105A9000F894DEBF0FBECDBF9C838B837E836D8366
:105AA00081E290E00E94C31D9A83898389819A8153
:105AB000009769F18D819E81009739F48B819C81DB
:105AC0000E94C31D98878F8304C08D819E81988713
:105AD0008F83E981FA818F819885908F878BE98107
